:1000000007C1000033C1000031C100002FC1000052
:100010002DC100002BC1000029C1000027C1000034
:1000200025C1000023C1000021C100001FC1000044
:100030001DC100001BC1000019C1000017C1000054
:1000400015C1000013C1000011C100000FC1000064
:100050000DC100000BC1000009C10000A1C20000D9
:1000600005C1000003C1000001C10000FFC0000085
:10007000FDC00000FBC00000F9C00000F7C0000098
:10008000F5C00000F3C00000F1C00000EFC00000A8
:10009000EDC00000EBC00000E9C00000E7C00000B8
:1000A000E5C00000E3C00000E1C00000DFC00000C8
:1000B000DDC00000DBC00000D9C00000D7C00000D8
:1000C000D5C00000D3C00000D1C00000CFC00000E8
:1000D000CDC00000CBC00000C9C00000C7C00000F8
:1000E000C5C00000C403C703B603BA03C003FE03C0
:1000F000CB03CF03D503D903DD03E303E703EB030E
:10010000FE03F103F503F90300000A0B02090C0DCD
:100110000E080703040100000000000000000000BA
:1001200000000000000000000000000000000000CF
:10013000000000001211100000000000000000008C
:1001400000000000000000000000000000000102AC
:1001500010202008081020401020408002010201D9
:100160000804020101020408102040808040201091
:1001700008040201800402018040201008040201EA
:100180000804020101020408102040800102040852
:10019000102040800505050507050808080802022B
:1001A00002020A0A08080404040401010101010111
:1001B00001010303030303030303040707070C0CF4
:1001C0000C0C0C0C0C0C02020202060606060606BB
:1001D00006060B0B0B0B0B0B0B0B00002200250074
:1001E00028002B002E003100340002010000050120
:1001F00008010B0100002100240027002A002D0027
:100200003000330001010000040107010A017201FE
:1002100011241FBECFEFD1E2DEBFCDBF00E00CBF87
:1002200012E0A0E0B2E0E2E2FBE000E00BBF02C0BF
:1002300007900D92AA30B107D9F722E0AAE0B2E008
:1002400001C01D92AB32B207E1F712E0C0E1D2E08B
:1002500000E005C022970109FE010BBF5CD4CE303F
:10026000D10780E00807B1F723D459C4C9CE60E0B4
:1002700089E3C5D260E088E3C2D260E087E3BFD201
:1002800020E042E060E18AE092E0E0C00F931F933B
:10029000CF93DF9389E33BD2EC0188E338D28C0122
:1002A00087E335D24AE050E0BE018AE092E0F8D31D
:1002B00040E068E08AE092E0B1D04AE050E0B80166
:1002C0008AE092E0EDD341E068E08AE092E0A6D0D7
:1002D0004AE050E0BE018AE092E0DF91CF911F91A9
:1002E0000F91DEC3CF92EF920F938EE1C82E9FE164
:1002F000E92E00E221E243E265E28AE092E02CD1BD
:100300000F91EF90CF900895CF93DF93EC0160E0D1
:100310008E81AED281E090E08DD161E08E81A8D255
:1003200081E090E087D160E08E81A2D284E690E007
:10033000DF91CF917FC1EF92FF920F931F93CF93E5
:10034000DF938C01C0E0D0E0E62EF12CB7010C2E3B
:1003500002C0759567950A94E2F76170F801EC0F99
:10036000FD1F878185D22196C430D10579F7C80158
:10037000DF91CF911F910F91FF90EF90C5CFEF923A
:10038000FF920F931F93CF93DF938C01C0E0D0E0D7
:10039000E62EF12CB7010C2E02C0759567950A94D4
:1003A000E2F76170F801EC0FFD1F878161D22196A1
:1003B000C830D10579F7C801DF91CF911F910F9116
:1003C000FF90EF90A1CF1F93CF93DF93EC01162FF7
:1003D000642F8C814DD28D818F3F11F060E048D227
:1003E0008F85612F84FF05C0CE01DF91CF911F91D2
:1003F000C6CF70E084E0759567958A95E1F7CE01E8
:100400009ADF612FCE01DF91CF911F9194CF40E011
:10041000DACF61E0FCDF80ED97E00CC1443008F0FA
:1004200043E0FC012389421710F04FEF420FFC011B
:10043000E40FF11D2489260F2068622FE8CFFC010C
:100440006089262F2460208B6C60E1CF0F931F936F
:10045000CF93DF93EC01423018F08F8588608F874F
:100460004B8B1C8A80E48D8B6E8B70E0605C7F4FC1
:100470006F8B222329F0413019F48F8584608F8798
:1004800061E08C81BCD18D818F3F11F061E0B7D1EB
:1004900061E08E81B4D100E010E08F8584FF03C05D
:1004A00088E090E002C084E090E0081719074CF45F
:1004B000FE01E00FF11F61E08781A1D10F5F1F4FA7
:1004C000ECCF80E593ECB6D060E08C81D1D160E0D8
:1004D0008E81CED18D818F3F11F060E0C9D16F85C3
:1004E00064FD16C063E0CE0126DF84E991E1A2D06D
:1004F00063E0CE0120DF84E991E19CD063E0CE018E
:100500001ADF86E990E096D062E0CE0114DF11C0D8
:100510006062CE017CDF84E991E18CD06F856062FE
:10052000CE0175DF86E990E085D06F856062CE01EF
:100530006EDF6F856062CE016ADF84E0888BCE015A
:100540007EDFCE0166DF82E0898B66E0CE01DF913F
:10055000CF911F910F915BCFCF92EF920F93FC0140
:100560001382128285E092E09183808364838FEF0F
:100570008583468327830087E186C2861386148697
:1005800015861686178620E041E060E1CF010F91C5
:10059000EF90CF905BCF41E016DF81E090E00895CF
:1005A0001F920F920FB60F9211242F933F938F93A8
:1005B0009F93AF93BF938091230290912402A091C7
:1005C0002502B09126023091220223E0230F2D371D
:1005D00020F40196A11DB11D05C026E8230F029647
:1005E000A11DB11D20932202809323029093240227
:1005F000A0932502B09326028091270290912802B1
:10060000A0912902B0912A020196A11DB11D8093EB
:10061000270290932802A0932902B0932A02BF9147
:10062000AF919F918F913F912F910F900FBE0F909F
:100630001F9018958230910538F0880F991F880F08
:10064000991F05970197F1F70895789484B5826012
:1006500084BD84B5816084BD85B5826085BD85B566
:10066000816085BDEEE6F0E0808181608083E1E815
:10067000F0E010828081826080838081816080834D
:10068000E0E8F0E0808181608083E1EBF0E0808150
:1006900084608083E0EBF0E0808181608083E1E929
:1006A000F0E0808182608083808181608083E0E9E6
:1006B000F0E0808181608083E1EAF0E08081826007
:1006C0008083808181608083E0EAF0E080818160C6
:1006D0008083E1E2F1E080818260808380818160BB
:1006E0008083E0E2F1E0808181608083EAE7F0E0EE
:1006F000808184608083808182608083808181604A
:1007000080838081806880831092C1000895863341
:1007100008F0865320917B00982F9870277F922BAA
:1007200090937B0087702091000290E4299F9001B4
:100730001124822B80937C0080917A0080648093C6
:100740007A0080917A0086FDFCCF8091780020911C
:10075000790090E0922B089590E0FC013197E2310E
:10076000F10508F04BC0EE58FF4FCFC180918000DB
:100770008F7703C0809180008F7D809380000895E3
:1007800080918000877FF9CF84B58F7702C084B5D0
:100790008F7D84BD08958091B0008F7703C08091D4
:1007A000B0008F7D8093B0000895809190008F7786
:1007B00007C0809190008F7D03C080919000877F5B
:1007C0008093900008958091A0008F7707C080915A
:1007D000A0008F7D03C08091A000877F8093A00040
:1007E0000895809120018F7707C0809120018F7D2F
:1007F00003C080912001877F809320010895CF93CB
:10080000DF9390E0FC01E25BFE4F2491FC01EC568B
:10081000FE4F8491882349F190E0880F991FFC01D5
:10082000EC50FE4FA591B49186529E4FFC01C591AC
:10083000D4919FB7611108C0F8948C9120958223C0
:100840008C93888182230AC0623051F4F8948C9191
:10085000322F309583238C938881822B888304C028
:10086000F8948C91822B8C939FBFDF91CF91089548
:100870000F931F93CF93DF931F92CDB7DEB7282F2F
:1008800030E0F901E85FFE4F8491F901E25BFE4F31
:100890001491F901EC56FE4F04910023C1F0882316
:1008A00019F0698359DF6981E02FF0E0EE0FFF1F37
:1008B000E652FE4FA591B4919FB7F8948C916111C7
:1008C00003C01095812301C0812B8C939FBF0F9093
:1008D000DF91CF911F910F910895CF92DF92EF9208
:1008E000FF920F931F93CF93DF937C016A01EB017B
:1008F00000E010E00C151D0571F06991D701ED9134
:10090000FC910190F081E02DC7011995892B19F018
:100910000F5F1F4FEFCFC801DF91CF911F910F9154
:10092000FF90EF90DF90CF9008956115710581F0F1
:10093000DB010D900020E9F7AD0141505109461B44
:10094000570BDC01ED91FC910280F381E02D1994AD
:1009500080E090E00895DC01ED91FC910190F08140
:10096000E02D19948F929F92AF92BF92CF92DF9217
:10097000EF92FF920F931F93CF93DF93CDB7DEB724
:10098000A1970FB6F894DEBF0FBECDBF7C01C42E79
:10099000E52FCB01D22E19A221E02D1510F02AE06F
:1009A000D22E8E010F5D1F4F8D2C912CA12CB12CBE
:1009B0006C2D7E2FA501940186D08C2DD29E80199E
:1009C0001124015011098A3014F4805D01C0895C42
:1009D000F8018083211531054105510521F0C22E12
:1009E000E32FCA01E5CFB801C7019FDFA1960FB67B
:1009F000F894DEBF0FBECDBFDF91CF911F910F9155
:100A0000FF90EF90DF90CF90BF90AF909F908F902E
:100A10000895CF92DF92EF92FF920F931F93CF939F
:100A2000DF93EC016A017B012115310579F4E8813E
:100A3000F9810190F081E02D642FDF91CF911F911A
:100A40000F91FF90EF90DF90CF9019942A303105ED
:100A5000D9F477FF18C06DE27EDF8C01442755275B
:100A6000BA014C195D096E097F092AE0CE017ADFCF
:100A7000800F911FDF91CF911F910F91FF90EF9009
:100A8000DF90CF9008952AE0B701A601CE01DF9153
:100A9000CF911F910F91FF90EF90DF90CF9062CF99
:100AA0009A01AB01662757FD6095762FB2CF089566
:100AB000CCDDFDDFDCDBC0E0D0E0E8DB2097E9F354
:100AC0000E940000FACFA1E21A2EAA1BBB1BFD0157
:100AD0000DC0AA1FBB1FEE1FFF1FA217B307E4071D
:100AE000F50720F0A21BB30BE40BF50B661F771F75
:100AF000881F991F1A9469F7609570958095909555
:100B00009B01AC01BD01CF010895EE0FFF1F0590C1
:100B1000F491E02D19940790F691E02D1994F89432
:020B2000FFCF05
:0A0B22000100000000CB026D04008A
:00000001FF
