:10000000D1C00000E1C00000DFC00000DDC0000082
:10001000DBC00000D9C00000D7C00000D5C0000080
:10002000D3C00000D1C00000CFC00000CDC0000090
:10003000CBC00000C9C00000C7C00000C5C00000A0
:10004000C3C00000C1C00000BFC00000BDC00000B0
:10005000BBC00000B9C00000B7C00000DDC0000098
:10006000B3C00000B1C00000AFC00000ADC00000D0
:10007000ABC00000A9C00000A7C00000A5C00000E0
:10008000A3C00000A1C000009FC000009DC00000F0
:100090009BC0000099C0000097C0000095C0000000
:1000A00093C0000091C000008FC000008DC0000010
:1000B0008BC0000089C0000087C0000085C0000020
:1000C00083C0000081C000007FC000007DC0000030
:1000D0007BC0000079C0000077C0000075C0000040
:1000E00073C0000000002200250028002B002E0015
:1000F0003100340002010000050108010B0100007D
:100100002100240027002A002D00300033000101C7
:100110000000040107010A01050505050705080897
:100120000808020202020A0A080804040404010181
:100130000101010101010303030303030303040796
:1001400007070C0C0C0C0C0C0C0C0202020206062D
:100150000606060606060B0B0B0B0B0B0B0B010220
:1001600010202008081020401020408002010201C9
:100170000804020101020408102040808040201081
:1001800008040201800402018040201008040201DA
:100190000804020101020408102040800102040842
:1001A0001020408011241FBECFEFD1E2DEBFCDBFB3
:1001B00000E00CBF22E0A0E0B2E001C01D92A93037
:1001C000B207E1F773D0B4C11BCF90E0FC01E25A53
:1001D000FE4F2491FC01E85EFE4F8491882399F044
:1001E00090E0880F991FFC01E250FF4FA591B49158
:1001F000FC01EC51FF4F859194918FB7F894EC91ED
:10020000E22BEC938FBF089592B1907F8F70982B63
:1002100092B9089580E0F8CF1F920F920FB60F9217
:1002200011242F933F938F939F93AF93BF9380910C
:10023000050290910602A0910702B0910802309148
:10024000040223E0230F2D3720F40196A11DB11DD8
:1002500005C026E8230F0296A11DB11D20930402BC
:100260008093050290930602A0930702B0930802C0
:100270008091000290910102A0910202B0910302CC
:100280000196A11DB11D8093000290930102A093DD
:100290000202B0930302BF91AF919F918F913F9162
:1002A0002F910F900FBE0F901F901895789484B5E2
:1002B000826084BD84B5816084BD85B5826085BD62
:1002C00085B5816085BD80916E00816080936E00F0
:1002D00010928100809181008260809381008091E2
:1002E0008100816080938100809180008160809393
:1002F00080008091B10084608093B1008091B00053
:1003000081608093B0008091910082608093910021
:100310008091910081608093910080919000816034
:10032000809390008091A10082608093A1008091D1
:10033000A10081608093A1008091A00081608093E2
:10034000A000809121018260809321018091210190
:100350008160809321018091200181608093200140
:1003600080917A00846080937A0080917A00826024
:1003700080937A0080917A00816080937A008091E6
:100380007A00806880937A001092C100F89481B15D
:100390008F6081B982B1807F82B980910A018861C2
:1003A00080930A0180910B01886180930B017894FE
:1003B00086E10BDF87E109DF89E107DF88E105DFFF
:1003C0008AE103DF8CE101DF8BE1FFDE8DE1FDDE01
:1003D000C0E0D0E086E018DF2FEF83ED90E32150FE
:1003E00080409040E1F700C0000014DF2FEF89E665
:1003F00098E1215080409040E1F700C0000089E082
:1004000003DF2FEF83ED90E3215080409040E1F730
:1004100000C00000FFDE2FEF89E698E12150804008
:100420009040E1F700C0000085E0EEDE2FEF83EDA5
:1004300090E3215080409040E1F700C00000EADEE8
:100440002FEF89E698E1215080409040E1F700C00D
:1004500000008AE0D9DE2FEF83ED90E32150804049
:100460009040E1F700C00000D5DE2FEF89E698E16B
:10047000215080409040E1F700C0000084E0C4DEDD
:100480002FEF83ED90E3215080409040E1F700C0D2
:100490000000C0DE2FEF89E698E1215080409040B7
:1004A000E1F700C0000082E0AFDE2FEF83ED90E3C4
:1004B000215080409040E1F700C00000ABDE2FEFFC
:1004C00089E698E1215080409040E1F700C00000AB
:1004D00081E09ADE2FEF83ED90E321508040904041
:1004E000E1F700C0000096DE2FEF89E698E1215089
:1004F00080409040E1F700C0000088E085DE2FEFEB
:1005000083ED90E3215080409040E1F700C000006F
:1005100081DE2FEF83ED90E3215080409040E1F7A2
:1005200000C00000209709F455CF0E94000052CF70
:04053000F894FFCF6D
:00000001FF
