:10000000D1C00000E1C00000DFC00000DDC0000082
:10001000DBC00000D9C00000D7C00000D5C0000080
:10002000D3C00000D1C00000CFC00000CDC0000090
:10003000CBC00000C9C00000C7C00000C5C00000A0
:10004000C3C00000C1C00000BFC00000BDC00000B0
:10005000BBC00000B9C00000B7C000005CC1000018
:10006000B3C00000B1C00000AFC00000ADC00000D0
:10007000ABC00000A9C00000A7C00000A5C00000E0
:10008000A3C00000A1C000009FC000009DC00000F0
:100090009BC0000099C0000097C0000095C0000000
:1000A00093C0000091C000008FC000008DC0000010
:1000B0008BC0000089C0000087C0000085C0000020
:1000C00083C0000081C000007FC000007DC0000030
:1000D0007BC0000079C0000077C0000075C0000040
:1000E00073C00000010210202008081020401020DA
:1000F00040800201020108040201010204081020EC
:1001000040808040201008040201800402018040E9
:100110002010080402010804020101020408102052
:1001200040800102040810204080050505050705F0
:1001300008080808020202020A0A08080404040463
:10014000010101010101010103030303030303038F
:10015000040707070C0C0C0C0C0C0C0C020202021E
:1001600006060606060606060B0B0B0B0B0B0B0B07
:1001700000002200250028002B002E003100340052
:1001800002010000050108010B010000210024000C
:1001900027002A002D003000330001010000040177
:1001A00007010A0111241FBECFEFD1E2DEBFCDBF90
:1001B00000E00CBF22E0A0E0B2E001C01D92A93037
:1001C000B207E1F79DD053C11BCF10BA11BA1092FC
:1001D0000701109208010895EAE7F0E010821092FA
:1001E0007B0080E280937C0080E880BF86E880838B
:1001F0000895883018F098E090937B0087708062B3
:1002000080937C0080917A00806480937A00809152
:100210007A0084FFFCCF8091790090917A00906100
:1002200090937A0010927B00089592B1907F8F7026
:10023000892B82B9089586E0F8CF80E0F6CFF89454
:10024000CBDFC3DF78940895FADF60E088E31ED047
:1002500061E086E11BD061E087E118D061E088E1D0
:1002600015D061E089E112D061E08AE10FD061E050
:100270008BE10CD061E08CE109D061E08DE106C03A
:1002800082E0B7DF803109F4D6CFD7CFCF93DF93A9
:1002900090E0FC01EC51FF4F2491FC01E65DFE4F24
:1002A0008491882349F190E0880F991FFC01E6575B
:1002B000FE4FA591B49180599E4FFC01C591D491F8
:1002C0009FB7611108C0F8948C91209582238C937C
:1002D000888182230AC0623051F4F8948C91322FC5
:1002E000309583238C938881822B888304C0F89473
:1002F0008C91822B8C939FBFDF91CF9108950895AD
:1003000054D0FDDFA1DFC0E0D0E0BADF2097E9F3F1
:100310000E940000FACF1F920F920FB60F92112485
:100320002F933F938F939F93AF93BF93809101023D
:1003300090910202A0910302B09104023091000258
:1003400023E0230F2D3720F40196A11DB11D05C018
:1003500026E8230F0296A11DB11D20930002809371
:10036000010290930202A0930302B09304028091D1
:10037000050290910602A0910702B0910802019631
:10038000A11DB11D8093050290930602A093070260
:10039000B0930802BF91AF919F918F913F912F91A0
:1003A0000F900FBE0F901F901895789484B58260BF
:1003B00084BD84B5816084BD85B5826085BD85B509
:1003C000816085BDEEE6F0E0808181608083E1E8B8
:1003D000F0E01082808182608083808181608083F0
:1003E000E0E8F0E0808181608083E1EBF0E08081F3
:1003F00084608083E0EBF0E0808181608083E1E9CC
:10040000F0E0808182608083808181608083E0E988
:10041000F0E0808181608083E1EAF0E080818260A9
:100420008083808181608083E0EAF0E08081816068
:100430008083E1E2F1E0808182608083808181605D
:100440008083E0E2F1E0808181608083EAE7F0E090
:1004500080818460808380818260808380818160EC
:1004600080838081806880831092C1000895F89411
:02047000FFCFBC
:00000001FF
